{"abi":[{"type":"constructor","inputs":[{"name":"owner_","type":"address","internalType":"address"},{"name":"entryPoint_","type":"address","internalType":"address"},{"name":"policyGuard_","type":"address","internalType":"address"}],"stateMutability":"nonpayable"},{"type":"receive","stateMutability":"payable"},{"type":"function","name":"_policyGuard","inputs":[],"outputs":[{"name":"","type":"address","internalType":"contract PolicyGuard"}],"stateMutability":"view"},{"type":"function","name":"entryPoint","inputs":[],"outputs":[{"name":"","type":"address","internalType":"address"}],"stateMutability":"view"},{"type":"function","name":"execute","inputs":[{"name":"target","type":"address","internalType":"address"},{"name":"value","type":"uint256","internalType":"uint256"},{"name":"data","type":"bytes","internalType":"bytes"}],"outputs":[],"stateMutability":"nonpayable"},{"type":"function","name":"executeBatch","inputs":[{"name":"targets","type":"address[]","internalType":"address[]"},{"name":"values","type":"uint256[]","internalType":"uint256[]"},{"name":"datas","type":"bytes[]","internalType":"bytes[]"}],"outputs":[],"stateMutability":"nonpayable"},{"type":"function","name":"getEthBalance","inputs":[],"outputs":[{"name":"","type":"uint256","internalType":"uint256"}],"stateMutability":"view"},{"type":"function","name":"getNonce","inputs":[],"outputs":[{"name":"","type":"uint256","internalType":"uint256"}],"stateMutability":"view"},{"type":"function","name":"getUsdcBalance","inputs":[{"name":"usdcToken","type":"address","internalType":"address"}],"outputs":[{"name":"","type":"uint256","internalType":"uint256"}],"stateMutability":"view"},{"type":"function","name":"owner","inputs":[],"outputs":[{"name":"","type":"address","internalType":"address"}],"stateMutability":"view"},{"type":"function","name":"policyGuard","inputs":[],"outputs":[{"name":"","type":"address","internalType":"address"}],"stateMutability":"view"},{"type":"function","name":"renounceOwnership","inputs":[],"outputs":[],"stateMutability":"nonpayable"},{"type":"function","name":"settleSession","inputs":[{"name":"sessionId","type":"bytes32","internalType":"bytes32"},{"name":"usdcToken","type":"address","internalType":"address"},{"name":"usdcAmount","type":"uint256","internalType":"uint256"},{"name":"ethAmount","type":"uint256","internalType":"uint256"}],"outputs":[],"stateMutability":"nonpayable"},{"type":"function","name":"transferOwnership","inputs":[{"name":"newOwner","type":"address","internalType":"address"}],"outputs":[],"stateMutability":"nonpayable"},{"type":"function","name":"validateUserOp","inputs":[{"name":"userOpHash","type":"bytes32","internalType":"bytes32"},{"name":"signature","type":"bytes","internalType":"bytes"}],"outputs":[{"name":"","type":"uint256","internalType":"uint256"}],"stateMutability":"view"},{"type":"event","name":"Executed","inputs":[{"name":"target","type":"address","indexed":true,"internalType":"address"},{"name":"value","type":"uint256","indexed":false,"internalType":"uint256"},{"name":"data","type":"bytes","indexed":false,"internalType":"bytes"}],"anonymous":false},{"type":"event","name":"OwnershipTransferred","inputs":[{"name":"previousOwner","type":"address","indexed":true,"internalType":"address"},{"name":"newOwner","type":"address","indexed":true,"internalType":"address"}],"anonymous":false},{"type":"event","name":"Received","inputs":[{"name":"sender","type":"address","indexed":true,"internalType":"address"},{"name":"amount","type":"uint256","indexed":false,"internalType":"uint256"}],"anonymous":false},{"type":"event","name":"SessionSettled","inputs":[{"name":"sessionId","type":"bytes32","indexed":true,"internalType":"bytes32"},{"name":"operator","type":"address","indexed":true,"internalType":"address"},{"name":"usdcDelta","type":"uint256","indexed":false,"internalType":"uint256"},{"name":"ethDelta","type":"uint256","indexed":false,"internalType":"uint256"},{"name":"timestamp","type":"uint256","indexed":false,"internalType":"uint256"}],"anonymous":false},{"type":"event","name":"UserOpExecuted","inputs":[{"name":"sender","type":"address","indexed":true,"internalType":"address"},{"name":"nonce","type":"uint256","indexed":false,"internalType":"uint256"},{"name":"success","type":"bool","indexed":false,"internalType":"bool"}],"anonymous":false},{"type":"error","name":"ECDSAInvalidSignature","inputs":[]},{"type":"error","name":"ECDSAInvalidSignatureLength","inputs":[{"name":"length","type":"uint256","internalType":"uint256"}]},{"type":"error","name":"ECDSAInvalidSignatureS","inputs":[{"name":"s","type":"bytes32","internalType":"bytes32"}]},{"type":"error","name":"OwnableInvalidOwner","inputs":[{"name":"owner","type":"address","internalType":"address"}]},{"type":"error","name":"OwnableUnauthorizedAccount","inputs":[{"name":"account","type":"address","internalType":"address"}]},{"type":"error","name":"ReentrancyGuardReentrantCall","inputs":[]}],"bytecode":{"object":"0x60c060405234801562000010575f80fd5b506040516200122d3803806200122d8339810160408190526200003391620000f6565b826001600160a01b0381166200006257604051631e4fbdf760e01b81525f600482015260240160405180910390fd5b6200006d816200008b565b50600180556001600160a01b0391821660a05216608052506200013d565b5f80546001600160a01b038381166001600160a01b0319831681178455604051919092169283917f8be0079c531659141344cd1fd0a4f28419497f9722a3daafe3b4186f6b6457e09190a35050565b80516001600160a01b0381168114620000f1575f80fd5b919050565b5f805f6060848603121562000109575f80fd5b6200011484620000da565b92506200012460208501620000da565b91506200013460408501620000da565b90509250925092565b60805160a05161109d620001905f395f818161025f015281816102de0152818161058f01528181610759015261089201525f81816101100152818161015e0152818161061c015261069c015261109d5ff3fe6080604052600436106100c2575f3560e01c8063779bf0aa1161007c578063b0d691fe11610057578063b0d691fe1461024e578063b61d27f614610281578063d087d288146102a0578063f2fde38b146102b4575f80fd5b8063779bf0aa146101f45780638da5cb5b146102135780639c8617071461022f575f80fd5b80632c8cc4ac14610102578063310c509b1461014d57806347e1da2a1461018057806369b49adc146101a157806370ed0ada146101ce578063715018a6146101e0575f80fd5b366100fe5760405134815233907f88a5966d370b9919b20f3e2c13ff65706f196a4e32cc2c12bf57088f885258749060200160405180910390a2005b5f80fd5b34801561010d575f80fd5b507f00000000000000000000000000000000000000000000000000000000000000005b6040516001600160a01b0390911681526020015b60405180910390f35b348015610158575f80fd5b506101307f000000000000000000000000000000000000000000000000000000000000000081565b34801561018b575f80fd5b5061019f61019a366004610d1f565b6102d3565b005b3480156101ac575f80fd5b506101c06101bb366004610dcd565b610503565b604051908152602001610144565b3480156101d9575f80fd5b50476101c0565b3480156101eb575f80fd5b5061019f610571565b3480156101ff575f80fd5b5061019f61020e366004610de6565b610584565b34801561021e575f80fd5b505f546001600160a01b0316610130565b34801561023a575f80fd5b506101c0610249366004610e5c565b61074d565b348015610259575f80fd5b506101307f000000000000000000000000000000000000000000000000000000000000000081565b34801561028c575f80fd5b5061019f61029b366004610ea4565b610887565b3480156102ab575f80fd5b506002546101c0565b3480156102bf575f80fd5b5061019f6102ce366004610dcd565b610979565b336001600160a01b037f000000000000000000000000000000000000000000000000000000000000000016148061031357505f546001600160a01b031633145b6103385760405162461bcd60e51b815260040161032f90610efa565b60405180910390fd5b6103406109b6565b848314801561034e57508281145b61039a5760405162461bcd60e51b815260206004820152601f60248201527f53656e74696e656c57616c6c65743a206c656e677468206d69736d6174636800604482015260640161032f565b5f5b858110156104f1576104448787838181106103b9576103b9610f41565b90506020020160208101906103ce9190610dcd565b8686848181106103e0576103e0610f41565b905060200201358585858181106103f9576103f9610f41565b905060200281019061040b9190610f55565b8080601f0160208091040260200160405190810160405280939291908181526020018383808284375f920191909152506109e092505050565b86868281811061045657610456610f41565b905060200201602081019061046b9190610dcd565b6001600160a01b03167fcaf938de11c367272220bfd1d2baa99ca46665e7bc4d85f00adb51b90fe1fa9f8686848181106104a7576104a7610f41565b905060200201358585858181106104c0576104c0610f41565b90506020028101906104d29190610f55565b6040516104e193929190610f98565b60405180910390a260010161039c565b506104fb60018055565b505050505050565b6040516370a0823160e01b81523060048201525f906001600160a01b038316906370a0823190602401602060405180830381865afa158015610547573d5f803e3d5ffd5b505050506040513d601f19601f8201168201806040525081019061056b9190610fcd565b92915050565b610579610a67565b6105825f610a93565b565b336001600160a01b037f00000000000000000000000000000000000000000000000000000000000000001614806105c457505f546001600160a01b031633145b6105e05760405162461bcd60e51b815260040161032f90610efa565b6105e86109b6565b604051630325917160e41b8152600481018590526001600160a01b03848116602483015260448201849052606482018390527f00000000000000000000000000000000000000000000000000000000000000001690633259171090608401602060405180830381865afa158015610661573d5f803e3d5ffd5b505050506040513d601f19601f820116820180604052508101906106859190610fe4565b50604051634365788160e11b8152600481018590527f00000000000000000000000000000000000000000000000000000000000000006001600160a01b0316906386caf102906024015f604051808303815f87803b1580156106e5575f80fd5b505af11580156106f7573d5f803e3d5ffd5b50506040805185815260208101859052428183015290513393508792507f1b595d44763c0428daf430675bfc6754bdd67a7f3f2f6d2da490c9988c1447939181900360600190a361074760018055565b50505050565b5f336001600160a01b037f000000000000000000000000000000000000000000000000000000000000000016146107d25760405162461bcd60e51b815260206004820152602360248201527f53656e74696e656c57616c6c65743a206e6f742066726f6d20656e747279706f6044820152621a5b9d60ea1b606482015260840161032f565b7f19457468657265756d205369676e6564204d6573736167653a0a3332000000005f908152601c859052603c812090505f61084485858080601f0160208091040260200160405190810160405280939291908181526020018383808284375f920191909152508693925050610ae29050565b90506108575f546001600160a01b031690565b6001600160a01b0316816001600160a01b031603610879575f92505050610880565b6001925050505b9392505050565b336001600160a01b037f00000000000000000000000000000000000000000000000000000000000000001614806108c757505f546001600160a01b031633145b6108e35760405162461bcd60e51b815260040161032f90610efa565b6108eb6109b6565b61092b848484848080601f0160208091040260200160405190810160405280939291908181526020018383808284375f920191909152506109e092505050565b836001600160a01b03167fcaf938de11c367272220bfd1d2baa99ca46665e7bc4d85f00adb51b90fe1fa9f84848460405161096893929190610f98565b60405180910390a261074760018055565b610981610a67565b6001600160a01b0381166109aa57604051631e4fbdf760e01b81525f600482015260240161032f565b6109b381610a93565b50565b6002600154036109d957604051633ee5aeb560e01b815260040160405180910390fd5b6002600155565b5f80846001600160a01b031684846040516109fb9190611003565b5f6040518083038185875af1925050503d805f8114610a35576040519150601f19603f3d011682016040523d82523d5f602084013e610a3a565b606091505b509150915081610a4c57805160208201fd5b60028054905f610a5b8361102f565b91905055505050505050565b5f546001600160a01b031633146105825760405163118cdaa760e01b815233600482015260240161032f565b5f80546001600160a01b038381166001600160a01b0319831681178455604051919092169283917f8be0079c531659141344cd1fd0a4f28419497f9722a3daafe3b4186f6b6457e09190a35050565b5f805f80610af08686610b0a565b925092509250610b008282610b53565b5090949350505050565b5f805f8351604103610b41576020840151604085015160608601515f1a610b3388828585610c0f565b955095509550505050610b4c565b505081515f91506002905b9250925092565b5f826003811115610b6657610b66611053565b03610b6f575050565b6001826003811115610b8357610b83611053565b03610ba15760405163f645eedf60e01b815260040160405180910390fd5b6002826003811115610bb557610bb5611053565b03610bd65760405163fce698f760e01b81526004810182905260240161032f565b6003826003811115610bea57610bea611053565b03610c0b576040516335e2f38360e21b81526004810182905260240161032f565b5050565b5f80807f7fffffffffffffffffffffffffffffff5d576e7357a4501ddfe92f46681b20a0841115610c4857505f91506003905082610ccd565b604080515f808252602082018084528a905260ff891692820192909252606081018790526080810186905260019060a0016020604051602081039080840390855afa158015610c99573d5f803e3d5ffd5b5050604051601f1901519150506001600160a01b038116610cc457505f925060019150829050610ccd565b92505f91508190505b9450945094915050565b5f8083601f840112610ce7575f80fd5b50813567ffffffffffffffff811115610cfe575f80fd5b6020830191508360208260051b8501011115610d18575f80fd5b9250929050565b5f805f805f8060608789031215610d34575f80fd5b863567ffffffffffffffff80821115610d4b575f80fd5b610d578a838b01610cd7565b90985096506020890135915080821115610d6f575f80fd5b610d7b8a838b01610cd7565b90965094506040890135915080821115610d93575f80fd5b50610da089828a01610cd7565b979a9699509497509295939492505050565b80356001600160a01b0381168114610dc8575f80fd5b919050565b5f60208284031215610ddd575f80fd5b61088082610db2565b5f805f8060808587031215610df9575f80fd5b84359350610e0960208601610db2565b93969395505050506040820135916060013590565b5f8083601f840112610e2e575f80fd5b50813567ffffffffffffffff811115610e45575f80fd5b602083019150836020828501011115610d18575f80fd5b5f805f60408486031215610e6e575f80fd5b83359250602084013567ffffffffffffffff811115610e8b575f80fd5b610e9786828701610e1e565b9497909650939450505050565b5f805f8060608587031215610eb7575f80fd5b610ec085610db2565b935060208501359250604085013567ffffffffffffffff811115610ee2575f80fd5b610eee87828801610e1e565b95989497509550505050565b60208082526027908201527f53656e74696e656c57616c6c65743a206e6f7420656e747279706f696e74206f604082015266391037bbb732b960c91b606082015260800190565b634e487b7160e01b5f52603260045260245ffd5b5f808335601e19843603018112610f6a575f80fd5b83018035915067ffffffffffffffff821115610f84575f80fd5b602001915036819003821315610d18575f80fd5b83815260406020820152816040820152818360608301375f818301606090810191909152601f909201601f1916010192915050565b5f60208284031215610fdd575f80fd5b5051919050565b5f60208284031215610ff4575f80fd5b81518015158114610880575f80fd5b5f82515f5b818110156110225760208186018101518583015201611008565b505f920191825250919050565b5f6001820161104c57634e487b7160e01b5f52601160045260245ffd5b5060010190565b634e487b7160e01b5f52602160045260245ffdfea2646970667358221220d6a23ce07fddae36d8155e9056e6f3e0b8b74c7e5164019e92600f4f79fc1d8364736f6c63430008180033","linkReferences":{}},"methodIdentifiers":{"_policyGuard()":"310c509b","entryPoint()":"b0d691fe","execute(address,uint256,bytes)":"b61d27f6","executeBatch(address[],uint256[],bytes[])":"47e1da2a","getEthBalance()":"70ed0ada","getNonce()":"d087d288","getUsdcBalance(address)":"69b49adc","owner()":"8da5cb5b","policyGuard()":"2c8cc4ac","renounceOwnership()":"715018a6","settleSession(bytes32,address,uint256,uint256)":"779bf0aa","transferOwnership(address)":"f2fde38b","validateUserOp(bytes32,bytes)":"9c861707"},"id":12}