{"abi":[{"type":"constructor","inputs":[{"name":"owner_","type":"address","internalType":"address"},{"name":"maxUsdc_","type":"uint256","internalType":"uint256"},{"name":"maxEth_","type":"uint256","internalType":"uint256"},{"name":"allowedTokens_","type":"address[]","internalType":"address[]"},{"name":"policyHash_","type":"bytes32","internalType":"bytes32"}],"stateMutability":"nonpayable"},{"type":"function","name":"getPolicy","inputs":[],"outputs":[{"name":"","type":"tuple","internalType":"struct IPolicyGuard.PolicyConfig","components":[{"name":"maxSettlementUsdc","type":"uint256","internalType":"uint256"},{"name":"maxSettlementEth","type":"uint256","internalType":"uint256"},{"name":"allowedTokens","type":"address[]","internalType":"address[]"},{"name":"policyHash","type":"bytes32","internalType":"bytes32"}]}],"stateMutability":"view"},{"type":"function","name":"isTokenAllowed","inputs":[{"name":"token","type":"address","internalType":"address"}],"outputs":[{"name":"","type":"bool","internalType":"bool"}],"stateMutability":"view"},{"type":"function","name":"markSettled","inputs":[{"name":"sessionId","type":"bytes32","internalType":"bytes32"}],"outputs":[],"stateMutability":"nonpayable"},{"type":"function","name":"maxSettlementEth","inputs":[],"outputs":[{"name":"","type":"uint256","internalType":"uint256"}],"stateMutability":"view"},{"type":"function","name":"maxSettlementUsdc","inputs":[],"outputs":[{"name":"","type":"uint256","internalType":"uint256"}],"stateMutability":"view"},{"type":"function","name":"owner","inputs":[],"outputs":[{"name":"","type":"address","internalType":"address"}],"stateMutability":"view"},{"type":"function","name":"policyHash","inputs":[],"outputs":[{"name":"","type":"bytes32","internalType":"bytes32"}],"stateMutability":"view"},{"type":"function","name":"renounceOwnership","inputs":[],"outputs":[],"stateMutability":"nonpayable"},{"type":"function","name":"settledSessions","inputs":[{"name":"","type":"bytes32","internalType":"bytes32"}],"outputs":[{"name":"","type":"bool","internalType":"bool"}],"stateMutability":"view"},{"type":"function","name":"transferOwnership","inputs":[{"name":"newOwner","type":"address","internalType":"address"}],"outputs":[],"stateMutability":"nonpayable"},{"type":"function","name":"updatePolicy","inputs":[{"name":"newPolicy","type":"tuple","internalType":"struct IPolicyGuard.PolicyConfig","components":[{"name":"maxSettlementUsdc","type":"uint256","internalType":"uint256"},{"name":"maxSettlementEth","type":"uint256","internalType":"uint256"},{"name":"allowedTokens","type":"address[]","internalType":"address[]"},{"name":"policyHash","type":"bytes32","internalType":"bytes32"}]}],"outputs":[],"stateMutability":"nonpayable"},{"type":"function","name":"validateSettlement","inputs":[{"name":"sessionId","type":"bytes32","internalType":"bytes32"},{"name":"usdcToken","type":"address","internalType":"address"},{"name":"usdcAmount","type":"uint256","internalType":"uint256"},{"name":"ethAmount","type":"uint256","internalType":"uint256"}],"outputs":[{"name":"","type":"bool","internalType":"bool"}],"stateMutability":"view"},{"type":"event","name":"OwnershipTransferred","inputs":[{"name":"previousOwner","type":"address","indexed":true,"internalType":"address"},{"name":"newOwner","type":"address","indexed":true,"internalType":"address"}],"anonymous":false},{"type":"event","name":"PolicyUpdated","inputs":[{"name":"oldPolicyHash","type":"bytes32","indexed":false,"internalType":"bytes32"},{"name":"newPolicyHash","type":"bytes32","indexed":false,"internalType":"bytes32"},{"name":"timestamp","type":"uint256","indexed":false,"internalType":"uint256"}],"anonymous":false},{"type":"event","name":"SettlementApproved","inputs":[{"name":"sessionId","type":"bytes32","indexed":true,"internalType":"bytes32"},{"name":"usdcAmount","type":"uint256","indexed":false,"internalType":"uint256"},{"name":"ethAmount","type":"uint256","indexed":false,"internalType":"uint256"},{"name":"policyHash","type":"bytes32","indexed":false,"internalType":"bytes32"}],"anonymous":false},{"type":"event","name":"SettlementRejected","inputs":[{"name":"sessionId","type":"bytes32","indexed":true,"internalType":"bytes32"},{"name":"reason","type":"string","indexed":false,"internalType":"string"}],"anonymous":false},{"type":"error","name":"AssetNotAllowed","inputs":[{"name":"token","type":"address","internalType":"address"}]},{"type":"error","name":"ExceedsMaxSettlement","inputs":[{"name":"amount","type":"uint256","internalType":"uint256"},{"name":"max","type":"uint256","internalType":"uint256"}]},{"type":"error","name":"OwnableInvalidOwner","inputs":[{"name":"owner","type":"address","internalType":"address"}]},{"type":"error","name":"OwnableUnauthorizedAccount","inputs":[{"name":"account","type":"address","internalType":"address"}]},{"type":"error","name":"PolicyHashMismatch","inputs":[{"name":"expected","type":"bytes32","internalType":"bytes32"},{"name":"actual","type":"bytes32","internalType":"bytes32"}]},{"type":"error","name":"Unauthorized","inputs":[]}],"bytecode":{"object":"0x608060405234801562000010575f80fd5b5060405162000ba138038062000ba183398101604081905262000033916200023b565b846001600160a01b0381166200006257604051631e4fbdf760e01b81525f600482015260240160405180910390fd5b6200006d816200013e565b506001849055600283905560038190555f5b8251811015620000dd57600160045f858481518110620000a357620000a36200033b565b6020908102919091018101516001600160a01b031682528101919091526040015f20805460ff19169115159190911790556001016200007f565b508151620000f39060059060208501906200018d565b50604080515f815260208101839052428183015290517f52ccf6c8c2db75db3e466f0c9f0abe14d6238d0c2249682cd85987146b4a97959181900360600190a150505050506200034f565b5f80546001600160a01b038381166001600160a01b0319831681178455604051919092169283917f8be0079c531659141344cd1fd0a4f28419497f9722a3daafe3b4186f6b6457e09190a35050565b828054828255905f5260205f20908101928215620001e3579160200282015b82811115620001e357825182546001600160a01b0319166001600160a01b03909116178255602090920191600190910190620001ac565b50620001f1929150620001f5565b5090565b5b80821115620001f1575f8155600101620001f6565b80516001600160a01b038116811462000222575f80fd5b919050565b634e487b7160e01b5f52604160045260245ffd5b5f805f805f60a0868803121562000250575f80fd5b6200025b866200020b565b602087810151604089015160608a01519398509096509450906001600160401b038082111562000289575f80fd5b818901915089601f8301126200029d575f80fd5b815181811115620002b257620002b262000227565b8060051b604051601f19603f83011681018181108582111715620002da57620002da62000227565b60405291825284820192508381018501918c831115620002f8575f80fd5b938501935b82851015620003215762000311856200020b565b84529385019392850192620002fd565b809750505050505050608086015190509295509295909350565b634e487b7160e01b5f52603260045260245ffd5b610844806200035d5f395ff3fe608060405234801561000f575f80fd5b50600436106100b1575f3560e01c806386caf1021161006e57806386caf1021461013c5780638da5cb5b14610164578063ce1e46261461017e578063efa9c8ef14610193578063f2fde38b1461019c578063f9eaee0d146101af575f80fd5b8063098fb624146100b557806332591710146100d15780636c2291e6146100f4578063715018a6146101095780637e4228df146101115780637e7115ed14610133575b5f80fd5b6100be60035481565b6040519081526020015b60405180910390f35b6100e46100df36600461068c565b6101da565b60405190151581526020016100c8565b6101076101023660046106c4565b6102fa565b005b610107610467565b6100e461011f366004610702565b60066020525f908152604090205460ff1681565b6100be60015481565b61010761014a366004610702565b5f908152600660205260409020805460ff19166001179055565b5f546040516001600160a01b0390911681526020016100c8565b61018661047a565b6040516100c89190610719565b6100be60025481565b6101076101aa366004610794565b610529565b6100e46101bd366004610794565b6001600160a01b03165f9081526004602052604090205460ff1690565b5f8481526006602052604081205460ff161561023d5760405162461bcd60e51b815260206004820152601760248201527f53657373696f6e20616c726561647920736574746c656400000000000000000060448201526064015b60405180910390fd5b60015483111561026e57600154604051630517debb60e51b8152610234918591600401918252602082015260400190565b60025482111561029f57600254604051630517debb60e51b8152610234918491600401918252602082015260400190565b5f831180156102c657506001600160a01b0384165f9081526004602052604090205460ff16155b156102ef57604051630188053b60e41b81526001600160a01b0385166004820152602401610234565b506001949350505050565b610302610566565b600380548235600155602083013560025560608301359091555f5b600554811015610379575f60045f6005848154811061033e5761033e6107ad565b5f918252602080832091909101546001600160a01b031683528201929092526040019020805460ff191691151591909117905560010161031d565b5061038560055f6105e1565b5f5b61039460408401846107c1565b905081101561040357600160045f6103af60408701876107c1565b858181106103bf576103bf6107ad565b90506020020160208101906103d49190610794565b6001600160a01b0316815260208101919091526040015f20805460ff1916911515919091179055600101610387565b5061041160408301836107c1565b61041d916005916105fc565b5060408051828152606080850135602083015242928201929092527f52ccf6c8c2db75db3e466f0c9f0abe14d6238d0c2249682cd85987146b4a9795910160405180910390a15050565b61046f610566565b6104785f610592565b565b6104a560405180608001604052805f81526020015f8152602001606081526020015f80191681525090565b604051806080016040528060015481526020016002548152602001600580548060200260200160405190810160405280929190818152602001828054801561051457602002820191905f5260205f20905b81546001600160a01b031681526001909101906020018083116104f6575b50505050508152602001600354815250905090565b610531610566565b6001600160a01b03811661055a57604051631e4fbdf760e01b81525f6004820152602401610234565b61056381610592565b50565b5f546001600160a01b031633146104785760405163118cdaa760e01b8152336004820152602401610234565b5f80546001600160a01b038381166001600160a01b0319831681178455604051919092169283917f8be0079c531659141344cd1fd0a4f28419497f9722a3daafe3b4186f6b6457e09190a35050565b5080545f8255905f5260205f2090810190610563919061065d565b828054828255905f5260205f2090810192821561064d579160200282015b8281111561064d5781546001600160a01b0319166001600160a01b0384351617825560209092019160019091019061061a565b5061065992915061065d565b5090565b5b80821115610659575f815560010161065e565b80356001600160a01b0381168114610687575f80fd5b919050565b5f805f806080858703121561069f575f80fd5b843593506106af60208601610671565b93969395505050506040820135916060013590565b5f602082840312156106d4575f80fd5b813567ffffffffffffffff8111156106ea575f80fd5b8201608081850312156106fb575f80fd5b9392505050565b5f60208284031215610712575f80fd5b5035919050565b5f602080835260a0830184518285015281850151604085015260408501516080606086015281815180845260c08701915084830193505f92505b8083101561077c5783516001600160a01b03168252928401926001929092019190840190610753565b50606087015160808701528094505050505092915050565b5f602082840312156107a4575f80fd5b6106fb82610671565b634e487b7160e01b5f52603260045260245ffd5b5f808335601e198436030181126107d6575f80fd5b83018035915067ffffffffffffffff8211156107f0575f80fd5b6020019150600581901b3603821315610807575f80fd5b925092905056fea264697066735822122014e1827c38d38aee7cb1246494a99299a49bebfa50795ffc96a4e9ee9209b36964736f6c63430008180033","linkReferences":{}},"methodIdentifiers":{"getPolicy()":"ce1e4626","isTokenAllowed(address)":"f9eaee0d","markSettled(bytes32)":"86caf102","maxSettlementEth()":"efa9c8ef","maxSettlementUsdc()":"7e7115ed","owner()":"8da5cb5b","policyHash()":"098fb624","renounceOwnership()":"715018a6","settledSessions(bytes32)":"7e4228df","transferOwnership(address)":"f2fde38b","updatePolicy((uint256,uint256,address[],bytes32))":"6c2291e6","validateSettlement(bytes32,address,uint256,uint256)":"32591710"},"id":11}